{
  "contractName": "MultiSigWallet",
  "abi": [
    {
      "inputs": [
        {
          "internalType": "address[]",
          "name": "_approvers",
          "type": "address[]"
        },
        {
          "internalType": "uint256",
          "name": "_quorum",
          "type": "uint256"
        }
      ],
      "stateMutability": "payable",
      "type": "constructor",
      "payable": true
    },
    {
      "inputs": [
        {
          "internalType": "address",
          "name": "",
          "type": "address"
        },
        {
          "internalType": "uint256",
          "name": "",
          "type": "uint256"
        }
      ],
      "name": "approvals",
      "outputs": [
        {
          "internalType": "bool",
          "name": "",
          "type": "bool"
        }
      ],
      "stateMutability": "view",
      "type": "function",
      "constant": true
    },
    {
      "inputs": [
        {
          "internalType": "uint256",
          "name": "",
          "type": "uint256"
        }
      ],
      "name": "approvers",
      "outputs": [
        {
          "internalType": "address",
          "name": "",
          "type": "address"
        }
      ],
      "stateMutability": "view",
      "type": "function",
      "constant": true
    },
    {
      "inputs": [],
      "name": "nextId",
      "outputs": [
        {
          "internalType": "uint256",
          "name": "",
          "type": "uint256"
        }
      ],
      "stateMutability": "view",
      "type": "function",
      "constant": true
    },
    {
      "inputs": [],
      "name": "quorum",
      "outputs": [
        {
          "internalType": "uint256",
          "name": "",
          "type": "uint256"
        }
      ],
      "stateMutability": "view",
      "type": "function",
      "constant": true
    },
    {
      "inputs": [
        {
          "internalType": "uint256",
          "name": "",
          "type": "uint256"
        }
      ],
      "name": "transfers",
      "outputs": [
        {
          "internalType": "uint256",
          "name": "id",
          "type": "uint256"
        },
        {
          "internalType": "uint256",
          "name": "amount",
          "type": "uint256"
        },
        {
          "internalType": "address payable",
          "name": "to",
          "type": "address"
        },
        {
          "internalType": "uint256",
          "name": "approvals",
          "type": "uint256"
        },
        {
          "internalType": "bool",
          "name": "sent",
          "type": "bool"
        }
      ],
      "stateMutability": "view",
      "type": "function",
      "constant": true
    },
    {
      "inputs": [
        {
          "internalType": "uint256",
          "name": "amount",
          "type": "uint256"
        },
        {
          "internalType": "address payable",
          "name": "to",
          "type": "address"
        }
      ],
      "name": "createTransfer",
      "outputs": [],
      "stateMutability": "nonpayable",
      "type": "function"
    },
    {
      "inputs": [
        {
          "internalType": "uint256",
          "name": "id",
          "type": "uint256"
        }
      ],
      "name": "sendTransfer",
      "outputs": [],
      "stateMutability": "nonpayable",
      "type": "function"
    }
  ],
  "bytecode": "0x608060405260405162000efe38038062000efe8339818101604052810190620000299190620001cf565b81600090805190602001906200004192919062000051565b5080600181905550505062000369565b828054828255906000526020600020908101928215620000cd579160200282015b82811115620000cc5782518260006101000a81548173ffffffffffffffffffffffffffffffffffffffff021916908373ffffffffffffffffffffffffffffffffffffffff1602179055509160200191906001019062000072565b5b509050620000dc9190620000e0565b5090565b5b80821115620000fb576000816000905550600101620000e1565b5090565b600062000116620001108462000252565b62000229565b905080838252602082019050828560208602820111156200013657600080fd5b60005b858110156200016a57816200014f888262000174565b84526020840193506020830192505060018101905062000139565b5050509392505050565b600081519050620001858162000335565b92915050565b600082601f8301126200019d57600080fd5b8151620001af848260208601620000ff565b91505092915050565b600081519050620001c9816200034f565b92915050565b60008060408385031215620001e357600080fd5b600083015167ffffffffffffffff811115620001fe57600080fd5b6200020c858286016200018b565b92505060206200021f85828601620001b8565b9150509250929050565b60006200023562000248565b9050620002438282620002bf565b919050565b6000604051905090565b600067ffffffffffffffff82111562000270576200026f620002f5565b5b602082029050602081019050919050565b60006200028e8262000295565b9050919050565b600073ffffffffffffffffffffffffffffffffffffffff82169050919050565b6000819050919050565b620002ca8262000324565b810181811067ffffffffffffffff82111715620002ec57620002eb620002f5565b5b80604052505050565b7f4e487b7100000000000000000000000000000000000000000000000000000000600052604160045260246000fd5b6000601f19601f8301169050919050565b620003408162000281565b81146200034c57600080fd5b50565b6200035a81620002b5565b81146200036657600080fd5b50565b610b8580620003796000396000f3fe608060405234801561001057600080fd5b506004361061007d5760003560e01c80639377d7111161005b5780639377d711146100da578063d1c68d1e1461010e578063d3650fb81461012a578063ffabc6731461015a5761007d565b80631703a018146100825780634c12fa47146100a057806361b8ce8c146100bc575b600080fd5b61008a61018a565b6040516100979190610967565b60405180910390f35b6100ba60048036038101906100b59190610833565b610190565b005b6100c461034e565b6040516100d19190610967565b60405180910390f35b6100f460048036038101906100ef919061080a565b610354565b604051610105959493929190610982565b60405180910390f35b6101286004803603810190610123919061080a565b6103b7565b005b610144600480360381019061013f919061080a565b610721565b60405161015191906108f1565b60405180910390f35b610174600480360381019061016f91906107ce565b610760565b604051610181919061090c565b60405180910390f35b60015481565b6000805b600080549050811015610251573373ffffffffffffffffffffffffffffffffffffffff16600082815481106101f2577f4e487b7100000000000000000000000000000000000000000000000000000000600052603260045260246000fd5b9060005260206000200160009054906101000a900473ffffffffffffffffffffffffffffffffffffffff1673ffffffffffffffffffffffffffffffffffffffff16141561023e57600191505b808061024990610a40565b915050610194565b506001151581151514610299576040517f08c379a000000000000000000000000000000000000000000000000000000000815260040161029090610947565b60405180910390fd5b600060026000600454815260200190815260200160002090506004548160000181905550838160010181905550828160020160006101000a81548173ffffffffffffffffffffffffffffffffffffffff021916908373ffffffffffffffffffffffffffffffffffffffff1602179055506000816003018190555060008160040160006101000a81548160ff0219169083151502179055506004600081548092919061034390610a40565b919050555050505050565b60045481565b60026020528060005260406000206000915090508060000154908060010154908060020160009054906101000a900473ffffffffffffffffffffffffffffffffffffffff16908060030154908060040160009054906101000a900460ff16905085565b6000805b600080549050811015610478573373ffffffffffffffffffffffffffffffffffffffff1660008281548110610419577f4e487b7100000000000000000000000000000000000000000000000000000000600052603260045260246000fd5b9060005260206000200160009054906101000a900473ffffffffffffffffffffffffffffffffffffffff1673ffffffffffffffffffffffffffffffffffffffff16141561046557600191505b808061047090610a40565b9150506103bb565b5060011515811515146104c0576040517f08c379a00000000000000000000000000000000000000000000000000000000081526004016104b790610947565b60405180910390fd5b600015156002600084815260200190815260200160002060040160009054906101000a900460ff1615151461052a576040517f08c379a000000000000000000000000000000000000000000000000000000000815260040161052190610927565b60405180910390fd5b60001515600360003373ffffffffffffffffffffffffffffffffffffffff1673ffffffffffffffffffffffffffffffffffffffff168152602001908152602001600020600084815260200190815260200160002060009054906101000a900460ff161515141561062a576001600360003373ffffffffffffffffffffffffffffffffffffffff1673ffffffffffffffffffffffffffffffffffffffff168152602001908152602001600020600084815260200190815260200160002060006101000a81548160ff02191690831515021790555060026000838152602001908152602001600020600301600081548092919061062490610a40565b91905055505b60015460026000848152602001908152602001600020600301541061071c5760016002600084815260200190815260200160002060040160006101000a81548160ff02191690831515021790555060006002600084815260200190815260200160002060020160009054906101000a900473ffffffffffffffffffffffffffffffffffffffff1690506000600260008581526020019081526020016000206001015490508173ffffffffffffffffffffffffffffffffffffffff166108fc829081150290604051600060405180830381858888f19350505050158015610714573d6000803e3d6000fd5b50505061071d565b5b5050565b6000818154811061073157600080fd5b906000526020600020016000915054906101000a900473ffffffffffffffffffffffffffffffffffffffff1681565b60036020528160005260406000206020528060005260406000206000915091509054906101000a900460ff1681565b60008135905061079e81610b0a565b92915050565b6000813590506107b381610b21565b92915050565b6000813590506107c881610b38565b92915050565b600080604083850312156107e157600080fd5b60006107ef8582860161078f565b9250506020610800858286016107b9565b9150509250929050565b60006020828403121561081c57600080fd5b600061082a848285016107b9565b91505092915050565b6000806040838503121561084657600080fd5b6000610854858286016107b9565b9250506020610865858286016107a4565b9150509250929050565b610878816109f8565b82525050565b610887816109e6565b82525050565b61089681610a0a565b82525050565b60006108a96016836109d5565b91506108b482610ab8565b602082019050919050565b60006108cc6015836109d5565b91506108d782610ae1565b602082019050919050565b6108eb81610a36565b82525050565b6000602082019050610906600083018461087e565b92915050565b6000602082019050610921600083018461088d565b92915050565b600060208201905081810360008301526109408161089c565b9050919050565b60006020820190508181036000830152610960816108bf565b9050919050565b600060208201905061097c60008301846108e2565b92915050565b600060a08201905061099760008301886108e2565b6109a460208301876108e2565b6109b1604083018661086f565b6109be60608301856108e2565b6109cb608083018461088d565b9695505050505050565b600082825260208201905092915050565b60006109f182610a16565b9050919050565b6000610a0382610a16565b9050919050565b60008115159050919050565b600073ffffffffffffffffffffffffffffffffffffffff82169050919050565b6000819050919050565b6000610a4b82610a36565b91507fffffffffffffffffffffffffffffffffffffffffffffffffffffffffffffffff821415610a7e57610a7d610a89565b5b600182019050919050565b7f4e487b7100000000000000000000000000000000000000000000000000000000600052601160045260246000fd5b7f5472616e7366657220616c72656164792073656e742e00000000000000000000600082015250565b7f4f6e6c7920617070726f76657220616c6c6f7765640000000000000000000000600082015250565b610b13816109e6565b8114610b1e57600080fd5b50565b610b2a816109f8565b8114610b3557600080fd5b50565b610b4181610a36565b8114610b4c57600080fd5b5056fea2646970667358221220e64e0043c6b50c81c8194bf87f16380425f591f87c3f15739b5694e4b510344064736f6c63430008040033",
  "immutableReferences": {},
  "source": "// SPDX-License-Identifier: GPL-3.0\n\npragma solidity ^0.8.4;\n\ncontract MultiSigWallet {\n    address[] public approvers;\n    uint public quorum;\n\n    struct Transfer {\n        uint id;\n        uint amount;\n        address payable to;\n        uint approvals;\n        bool sent;\n    }\n    mapping(uint => Transfer) public transfers;\n    mapping(address => mapping(uint => bool)) public approvals;\n\n    uint public nextId;\n\n    constructor(address[] memory _approvers, uint _quorum) payable {\n        approvers = _approvers;\n        quorum = _quorum;\n    }\n\n    function createTransfer(uint amount, address payable to) external onlyApprover(){\n        Transfer storage t = transfers[nextId];\n        t.id = nextId;\n        t.amount = amount;\n        t.to = to;\n        t.approvals = 0;\n        t.sent = false;\n\n        nextId++;\n    }\n\n    function sendTransfer(uint id) external onlyApprover() {\n        require(transfers[id].sent == false, \"Transfer already sent.\");\n\n        if (approvals[msg.sender][id] == false) {\n            approvals[msg.sender][id] = true;\n\n            transfers[id].approvals++;\n        }\n\n        if (transfers[id].approvals >= quorum) {\n            transfers[id].sent = true;\n\n            address payable to = transfers[id].to;\n            uint amount = transfers[id].amount;\n\n            to.transfer(amount);\n\n            return;\n        }\n    }\n\n    modifier onlyApprover() {\n        bool allowed = false;\n\n        for (uint i = 0; i < approvers.length; i++) {\n            if (approvers[i] == msg.sender) {\n                allowed = true;\n            }\n        }\n\n        require(allowed == true, \"Only approver allowed\");\n        _;\n    }\n}\n",
  "sourcePath": "/Users/aclapinpepin/code/ethereum-portfolio/multisigWallet/contracts/MultiSigWallet.sol",
  "compiler": {
    "name": "solc",
    "version": "0.8.4+commit.c7e474f2.Emscripten.clang"
  },
  "schemaVersion": "3.4.1",
  "updatedAt": "2021-07-08T09:15:57.239Z",
  "networkType": "ethereum",
  "devdoc": {
    "kind": "dev",
    "methods": {},
    "version": 1
  },
  "userdoc": {
    "kind": "user",
    "methods": {},
    "version": 1
  }
}