{
  "contractName": "MultiSigWallet",
  "abi": [
    {
      "inputs": [
        {
          "internalType": "address[]",
          "name": "_approvers",
          "type": "address[]"
        },
        {
          "internalType": "uint256",
          "name": "_quorum",
          "type": "uint256"
        }
      ],
      "stateMutability": "payable",
      "type": "constructor",
      "payable": true
    },
    {
      "inputs": [
        {
          "internalType": "uint256",
          "name": "",
          "type": "uint256"
        }
      ],
      "name": "approvers",
      "outputs": [
        {
          "internalType": "address",
          "name": "",
          "type": "address"
        }
      ],
      "stateMutability": "view",
      "type": "function",
      "constant": true
    },
    {
      "inputs": [],
      "name": "quorum",
      "outputs": [
        {
          "internalType": "uint256",
          "name": "",
          "type": "uint256"
        }
      ],
      "stateMutability": "view",
      "type": "function",
      "constant": true
    },
    {
      "inputs": [
        {
          "internalType": "uint256",
          "name": "",
          "type": "uint256"
        }
      ],
      "name": "transfers",
      "outputs": [
        {
          "internalType": "uint256",
          "name": "id",
          "type": "uint256"
        },
        {
          "internalType": "uint256",
          "name": "amount",
          "type": "uint256"
        },
        {
          "internalType": "address payable",
          "name": "to",
          "type": "address"
        },
        {
          "internalType": "uint256",
          "name": "approvals",
          "type": "uint256"
        },
        {
          "internalType": "bool",
          "name": "sent",
          "type": "bool"
        }
      ],
      "stateMutability": "view",
      "type": "function",
      "constant": true
    },
    {
      "inputs": [
        {
          "internalType": "uint256",
          "name": "amount",
          "type": "uint256"
        },
        {
          "internalType": "address payable",
          "name": "to",
          "type": "address"
        }
      ],
      "name": "createTransfer",
      "outputs": [],
      "stateMutability": "nonpayable",
      "type": "function"
    },
    {
      "inputs": [
        {
          "internalType": "uint256",
          "name": "id",
          "type": "uint256"
        }
      ],
      "name": "sendTransfer",
      "outputs": [],
      "stateMutability": "nonpayable",
      "type": "function"
    }
  ],
  "bytecode": "0x608060405260405162000dd238038062000dd28339818101604052810190620000299190620001cf565b81600090805190602001906200004192919062000051565b5080600181905550505062000369565b828054828255906000526020600020908101928215620000cd579160200282015b82811115620000cc5782518260006101000a81548173ffffffffffffffffffffffffffffffffffffffff021916908373ffffffffffffffffffffffffffffffffffffffff1602179055509160200191906001019062000072565b5b509050620000dc9190620000e0565b5090565b5b80821115620000fb576000816000905550600101620000e1565b5090565b600062000116620001108462000252565b62000229565b905080838252602082019050828560208602820111156200013657600080fd5b60005b858110156200016a57816200014f888262000174565b84526020840193506020830192505060018101905062000139565b5050509392505050565b600081519050620001858162000335565b92915050565b600082601f8301126200019d57600080fd5b8151620001af848260208601620000ff565b91505092915050565b600081519050620001c9816200034f565b92915050565b60008060408385031215620001e357600080fd5b600083015167ffffffffffffffff811115620001fe57600080fd5b6200020c858286016200018b565b92505060206200021f85828601620001b8565b9150509250929050565b60006200023562000248565b9050620002438282620002bf565b919050565b6000604051905090565b600067ffffffffffffffff82111562000270576200026f620002f5565b5b602082029050602081019050919050565b60006200028e8262000295565b9050919050565b600073ffffffffffffffffffffffffffffffffffffffff82169050919050565b6000819050919050565b620002ca8262000324565b810181811067ffffffffffffffff82111715620002ec57620002eb620002f5565b5b80604052505050565b7f4e487b7100000000000000000000000000000000000000000000000000000000600052604160045260246000fd5b6000601f19601f8301169050919050565b620003408162000281565b81146200034c57600080fd5b50565b6200035a81620002b5565b81146200036657600080fd5b50565b610a5980620003796000396000f3fe608060405234801561001057600080fd5b50600436106100575760003560e01c80631703a0181461005c5780634c12fa471461007a5780639377d71114610096578063d1c68d1e146100ca578063d3650fb8146100e6575b600080fd5b610064610116565b6040516100719190610852565b60405180910390f35b610094600480360381019061008f9190610739565b61011c565b005b6100b060048036038101906100ab9190610710565b6102da565b6040516100c195949392919061086d565b60405180910390f35b6100e460048036038101906100df9190610710565b61033d565b005b61010060048036038101906100fb9190610710565b6106a7565b60405161010d91906107f7565b60405180910390f35b60015481565b6000805b6000805490508110156101dd573373ffffffffffffffffffffffffffffffffffffffff166000828154811061017e577f4e487b7100000000000000000000000000000000000000000000000000000000600052603260045260246000fd5b9060005260206000200160009054906101000a900473ffffffffffffffffffffffffffffffffffffffff1673ffffffffffffffffffffffffffffffffffffffff1614156101ca57600191505b80806101d59061092b565b915050610120565b506001151581151514610225576040517f08c379a000000000000000000000000000000000000000000000000000000000815260040161021c90610832565b60405180910390fd5b600060026000600454815260200190815260200160002090506004548160000181905550838160010181905550828160020160006101000a81548173ffffffffffffffffffffffffffffffffffffffff021916908373ffffffffffffffffffffffffffffffffffffffff1602179055506000816003018190555060008160040160006101000a81548160ff021916908315150217905550600460008154809291906102cf9061092b565b919050555050505050565b60026020528060005260406000206000915090508060000154908060010154908060020160009054906101000a900473ffffffffffffffffffffffffffffffffffffffff16908060030154908060040160009054906101000a900460ff16905085565b6000805b6000805490508110156103fe573373ffffffffffffffffffffffffffffffffffffffff166000828154811061039f577f4e487b7100000000000000000000000000000000000000000000000000000000600052603260045260246000fd5b9060005260206000200160009054906101000a900473ffffffffffffffffffffffffffffffffffffffff1673ffffffffffffffffffffffffffffffffffffffff1614156103eb57600191505b80806103f69061092b565b915050610341565b506001151581151514610446576040517f08c379a000000000000000000000000000000000000000000000000000000000815260040161043d90610832565b60405180910390fd5b600015156002600084815260200190815260200160002060040160009054906101000a900460ff161515146104b0576040517f08c379a00000000000000000000000000000000000000000000000000000000081526004016104a790610812565b60405180910390fd5b60001515600360003373ffffffffffffffffffffffffffffffffffffffff1673ffffffffffffffffffffffffffffffffffffffff168152602001908152602001600020600084815260200190815260200160002060009054906101000a900460ff16151514156105b0576001600360003373ffffffffffffffffffffffffffffffffffffffff1673ffffffffffffffffffffffffffffffffffffffff168152602001908152602001600020600084815260200190815260200160002060006101000a81548160ff0219169083151502179055506002600083815260200190815260200160002060030160008154809291906105aa9061092b565b91905055505b6001546002600084815260200190815260200160002060030154106106a25760016002600084815260200190815260200160002060040160006101000a81548160ff02191690831515021790555060006002600084815260200190815260200160002060020160009054906101000a900473ffffffffffffffffffffffffffffffffffffffff1690506000600260008581526020019081526020016000206001015490508173ffffffffffffffffffffffffffffffffffffffff166108fc829081150290604051600060405180830381858888f1935050505015801561069a573d6000803e3d6000fd5b5050506106a3565b5b5050565b600081815481106106b757600080fd5b906000526020600020016000915054906101000a900473ffffffffffffffffffffffffffffffffffffffff1681565b6000813590506106f5816109f5565b92915050565b60008135905061070a81610a0c565b92915050565b60006020828403121561072257600080fd5b6000610730848285016106fb565b91505092915050565b6000806040838503121561074c57600080fd5b600061075a858286016106fb565b925050602061076b858286016106e6565b9150509250929050565b61077e816108e3565b82525050565b61078d816108d1565b82525050565b61079c816108f5565b82525050565b60006107af6016836108c0565b91506107ba826109a3565b602082019050919050565b60006107d26015836108c0565b91506107dd826109cc565b602082019050919050565b6107f181610921565b82525050565b600060208201905061080c6000830184610784565b92915050565b6000602082019050818103600083015261082b816107a2565b9050919050565b6000602082019050818103600083015261084b816107c5565b9050919050565b600060208201905061086760008301846107e8565b92915050565b600060a08201905061088260008301886107e8565b61088f60208301876107e8565b61089c6040830186610775565b6108a960608301856107e8565b6108b66080830184610793565b9695505050505050565b600082825260208201905092915050565b60006108dc82610901565b9050919050565b60006108ee82610901565b9050919050565b60008115159050919050565b600073ffffffffffffffffffffffffffffffffffffffff82169050919050565b6000819050919050565b600061093682610921565b91507fffffffffffffffffffffffffffffffffffffffffffffffffffffffffffffffff82141561096957610968610974565b5b600182019050919050565b7f4e487b7100000000000000000000000000000000000000000000000000000000600052601160045260246000fd5b7f5472616e7366657220616c72656164792073656e742e00000000000000000000600082015250565b7f4f6e6c7920617070726f76657220616c6c6f7765640000000000000000000000600082015250565b6109fe816108e3565b8114610a0957600080fd5b50565b610a1581610921565b8114610a2057600080fd5b5056fea2646970667358221220f0796776f022fbfe421b078144c93605c9987261eeeb49af536b95f37d804f9c64736f6c63430008040033",
  "immutableReferences": {},
  "source": "// SPDX-License-Identifier: GPL-3.0\n\npragma solidity ^0.8.4;\n\ncontract MultiSigWallet {\n    address[] public approvers;\n    uint public quorum;\n\n    struct Transfer {\n        uint id;\n        uint amount;\n        address payable to;\n        uint approvals;\n        bool sent;\n    }\n    mapping(uint => Transfer) public transfers;\n    mapping(address => mapping(uint => bool)) approvals;\n\n    uint nextId;\n\n    constructor(address[] memory _approvers, uint _quorum) payable {\n        approvers = _approvers;\n        quorum = _quorum;\n    }\n\n    function createTransfer(uint amount, address payable to) external onlyApprover(){\n        Transfer storage t = transfers[nextId];\n        t.id = nextId;\n        t.amount = amount;\n        t.to = to;\n        t.approvals = 0;\n        t.sent = false;\n\n        nextId++;\n    }\n\n    function sendTransfer(uint id) external onlyApprover() {\n        require(transfers[id].sent == false, \"Transfer already sent.\");\n\n        if (approvals[msg.sender][id] == false) {\n            approvals[msg.sender][id] = true;\n\n            transfers[id].approvals++;\n        }\n\n        if (transfers[id].approvals >= quorum) {\n            transfers[id].sent = true;\n\n            address payable to = transfers[id].to;\n            uint amount = transfers[id].amount;\n\n            to.transfer(amount);\n\n            return;\n        }\n    }\n\n    modifier onlyApprover() {\n        bool allowed = false;\n\n        for (uint i = 0; i < approvers.length; i++) {\n            if (approvers[i] == msg.sender) {\n                allowed = true;\n            }\n        }\n\n        require(allowed == true, \"Only approver allowed\");\n        _;\n    }\n}\n",
  "sourcePath": "/Users/aclapinpepin/code/ethereum-portfolio/multisigWallet/contracts/MultiSigWallet.sol",
  "compiler": {
    "name": "solc",
    "version": "0.8.4+commit.c7e474f2.Emscripten.clang"
  },
  "schemaVersion": "3.4.1",
  "updatedAt": "2021-07-07T14:10:48.950Z",
  "networkType": "ethereum",
  "devdoc": {
    "kind": "dev",
    "methods": {},
    "version": 1
  },
  "userdoc": {
    "kind": "user",
    "methods": {},
    "version": 1
  }
}